:0411C400EF4E601377
:1011C8007557027558C7D558FDD557FAEF1F70ECFB
:0111D8001EF8
:0311D90080E92288
:09000E00075E1901010000000366
:05000300C2B5C2B622E7
:050FCF002DFDEE3CFCCD
:060FD4008C558D56AB07A1
:100FDA00D2B5E4FD74017E00A805088005C333CEAE
:100FEA0033CED8F9FFEBF582EF558224FF92B4D2C3
:100FFA00B6C2B60DBD08DDE4FD74017E00A8050881
:10100A008005C333CE33CED8F9FFE5555EFEE556EB
:10101A005F4E24FF92B4D2B6C2B60DBD08DBC2B58C
:01102A0022A3
:02102B00AD070F
:10102D00E4F9430501D2B5FB74017E00A8030880E5
:10103D0005C333CE33CED8F9FFEDF582EF558224BB
:10104D00FF92B4C2B6D2B60BBB08DDE4FBD2B6C27A
:10105D00B630B40D7401A803088002C333D8FC4226
:0B106D00010BBB08E8C2B5C2B4AF0124
:011078002255
:100B4300E4FDFC7F8E120FD4E55E75F00A120CBD36
:100B5300FF3395E0FEEFC4F8540FC868FFEEC454AA
:100B6300F048FEE55E75F00A120CBDADF0ED33956D
:100B7300E0FCEF7F8C120FCFE55F75F00A120CBD1E
:100B8300FF3395E0FEEFC4F8540FC868FFEEC4547A
:100B9300F048FEE55F75F00A120CBDADF0ED33953C
:100BA300E0FCEF7F88120FCFE56075F00A120CBDF1
:100BB300FF3395E0FEEFC4F8540FC868FFEEC4544A
:100BC300F048FEE56075F00A120CBDADF0ED33950B
:100BD300E0FCEF2DFDEE3CFC7F86120FD4E5617542
:100BE300F00A120CBDFF3395E0FEEFC4F8540FC8B2
:100BF30068FFEEC454F048FEE56175F00A120CBDBF
:100C0300ADF0ED3395E0FCEF2DFDEE3CFC7F84125F
:100C13000FD4E56275F00A120CBDFF3395E0FEEFC9
:100C2300C4F8540FC868FFEEC454F048FEE562757B
:100C3300F00A120CBDADF0ED3395E0FCEF2DFDEEA7
:100C43003CFC7F82120FD4E56375F00A120CBDFFE2
:100C53003395E0FEEFC4F8540FC868FFEEC454F0B8
:100C630048FEE56375F00A120CBDADF0ED3395E077
:100C7300FCEF2DFDEE3CFC7F80120FD4E56475F094
:100C83000A120CBDFF3395E0FEEFC4F8540FC86899
:100C9300FFEEC454F048FEE56475F00A120CBDADD6
:100CA300F0ED3395E0FCEF2DFDEE3CFC7F8A120F57
:0A0CB300D47D807C007F8E020FD4F8
:100D73007F8C12102BEFC4540F75F00AA4FEEF54AE
:100D83000F2EF55E7F8812102BEFC4540F75F00AF7
:100D9300A4FEEF540F2EF55F7F8612102BEFC45481
:100DA3000F75F00AA4FEEF540F2EF5607F84121026
:100DB3002BEFC4540F75F00AA4FEEF540F2EF56108
:100DC3007F8212102BEFC4540F75F00AA4FEEF5468
:100DD3000F2EF5627F8012102BEFC4540F75F00AAB
:100DE300A4FEEF540F2EF5637F8A12102BEFC45429
:0C0DF3000F75F00AA4FEEF540F2EF564FB
:010DFF0022D1
:100F6E00E4F55520B1137F14FE1211C430B1FD7F8C
:100F7E00147E001211C475550120B0147F147E002A
:100F8E001211C430B0FD7F147E001211C4755502CB
:100F9E0020B2147F147E001211C430B2FD7F147E75
:100FAE00001211C475550320B3147F147E00121164
:100FBE00C430B3FD7F147E001211C4755504AF55B5
:010FCE002200
:06125500C2A58F80D2A7A4
:08125B007F027EEFDEFEDFFCE6
:011263002268
:0A001E00C2A6121255C2A702125B1F
:0A126400D2A6121255C2A702125BB7
:1011DC00AE07BE0104ED148006BE0209ED243F44A7
:0611EC0080FF12001E222C
:101208007F3812001E7F0C12001E7F0612001E7F00
:041218000102001EB1
:0611A1008B558A568957A8
:1011A7001211DCE4FDAB55AA56A9578D8275830051
:0C11B700120CDFFF60061212640D80E9CC
:0111C3002209
:081156008E5A8F5B8C5C8D5DED
:10115E007F017E00E4FBEBC3955DE55C6480F87473
:0E116E008098500AAC5AAD5B120D0C0B80E855
:01117C002250
:041079008A578B58AF
:10107D001211DCAA59EAD39400402DEA24FFFDE4B5
:10108D0034FFFC7F0A7E00121156AC57AD58CFCD00
:10109D00CFCECCCE120D1E7C007D0A120D1EED247E
:0810AD0030FF1212641A80CD1D
:0110B5002218
:100E8C00202000540020202D20202D2020204D4FEC
:100E9C0044450020203A20203A20202053484F5728
:100EAC000020203A20203A202020534554200020B6
:100EBC00203A20203A202020414C41524D00303025
:100ECC003A3030202020204D4F44450030302E3019
:100EDC003020202020532D5720200020203A202085
:100EEC003A20202042454C4C200020203A20203A29
:090EFC0020202053484F5720002C
:100F0500120D73E55EFB3395E0FA7559027D017F9D
:100F150001121079E55FFB3395E0FA7559027D04FE
:100F25007F01121079E560FB3395E0FA7559027D72
:100F3500077F01121079E561FB3395E0FA755902D7
:100F45007D017F02121079E562FB3395E0FA755950
:100F5500027D047F02121079E563FB3395E0FA7593
:090F650059027D077F0202107998
:10048500E552B4020B0512E51275F0068485F012EB
:10049500E5526403600302055F745E2512F806D316
:1004A500E55E648094E34003E4F55ED3E55F648034
:1004B500948C4003755F01E55F64016023E55F642B
:1004C50003601DE55F64056017E55F64076011E57E
:1004D5005F6408600BE55F640A6005E55FB40C0BBB
:1004E500D3E5606480949F404D8048E55F64046077
:1004F50011E55F6406600BE55F64096005E55FB4BF
:100505000B0BD3E5606480949E402B8026E55FB499
:100515000224E55E75F004120CBDAFF0EF700BD34D
:10052500E5606480949D400E8009D3E56064809405
:100535009C4003756001D3E561648094974003E4B2
:10054500F561D3E562648094BB4003E4F562D3E5CD
:1005550063648094BB4003E4F563E552640460037F
:1005650002065A745E2512F816C3E55E648094800F
:100575005003755E63C3E55F648094815003755FC6
:100585000CE55F64016023E55F6403601DE55F645E
:10059500056017E55F64076011E55F6408600BE5BA
:1005A5005F640A6005E55FB40C17C3E56064809479
:1005B50081500375601FD3E5606480949F4072800D
:1005C5006DE55F64046011E55F6406600BE55F64DB
:1005D500096005E55FB40B17C3E56064809481503D
:1005E5000375601ED3E5606480949E4044803FE5BA
:1005F5005F6402703CE55E75F004120CBDAFF0EF70
:100605007017C3E56064809481500375601DD3E560
:10061500606480949D401A8015C3E5606480948170
:10062500500375601CD3E5606480949C400375603D
:1006350001C3E561648094805003756117C3E56269
:1006450064809480500375623BC3E5636480948045
:10065500500375633BE5127014E515B4010F7BFF7C
:100665007A0E798C7D017F011211A18011E55EFB67
:100675003395E0FA7559027D017F01121079E51273
:10068500B40114E515B4010F7BFF7A0E798C7D0456
:100695007F011211A18011E55FFB3395E0FA7559D1
:1006A500027D047F01121079E512B40214E515B438
:1006B500010F7BFF7A0E798C7D077F011211A180D6
:1006C50011E560FB3395E0FA7559027D077F01124C
:1006D5001079E512B40314E515B4010F7BFF7A0E0A
:1006E500798C7D017F021211A18011E561FB3395A3
:1006F500E0FA7559027D017F02121079E512B40402
:1007050014E515B4010F7BFF7A0E798C7D047F0209
:100715001211A18011E562FB3395E0FA7559027D4E
:10072500047F02121079E512B40512E515B4010D26
:100735007BFF7A0E798C7D077F020211A1E563FBB1
:0F0745003395E0FA7559027D077F021210792271
:10002E00E552B40226E5547017755401855E0C85B1
:10003E005F0D85600E85610F856210856311800BE3
:10004E000512E51275F0068485F012E55264036020
:10005E00030201E0740C2512F806E50CD3946340FC
:10006E0003E4F50CE50DD3940C4003750D01E50D7D
:10007E0064016023E50D6403601DE50D64056017E2
:10008E00E50D64076011E50D6408600BE50D640A6B
:10009E006005E50DB40C09E50ED3941F4040803B7E
:1000AE00E50D64046011E50D6406600BE50D640951
:1000BE006005E50DB40B09E50ED3941E4020801BA0
:1000CE00E50DB40219E50C54037009E50ED3941D29
:1000DE00400C8007E50ED3941C4003750E01E50F0E
:1000EE00D394174003E4F50FE510D3943B4003E49B
:1000FE00F510E511D3943B4003E4F511AF5EEF33F9
:10010E0095E0FEC3E50C9FEE6480F8748098500372
:10011E00855E0CE50CB55E17AF5FEF3395E0FEC361
:10012E00E50D9FEE6480F87480985003855F0DE5B1
:10013E000CB55E1CE50DB55F17AF60EF3395E0FEB5
:10014E00C3E50E9FEE6480F8748098500385600EB0
:10015E00E50CB55E21E50DB55F1CE50EB56017AF7C
:10016E0061EF3395E0FEC3E50F9FEE6480F8748077
:10017E0098500385610FE50CB55E26E50DB55F2140
:10018E00E50EB5601CE50FB56117AF62EF3395E074
:10019E00FEC3E5109FEE6480F8748098500385626C
:1001AE0010E50C655E702BE50DB55F26E50EB560AE
:1001BE0021E50FB5611CE510B56217AF63EF3395FE
:1001CE00E0FEC3E5119FEE6480F8748098500385BD
:1001DE006311E55264046003020390740C2512F857
:1001EE0016E50CC394005003750C63E50DC3940122
:1001FE005003750D0CE50D64016023E50D6403607D
:10020E001DE50D64056017E50D64076011E50D64CD
:10021E0008600BE50D640A6005E50DB40C13E50EE0
:10022E00C394015003750E1FE50ED3941F405F80DB
:10023E005AE50D64046011E50D6406600BE50D646E
:10024E00096005E50DB40B13E50EC394015003755B
:10025E000E1EE50ED3941E40358030E50D640270FF
:10026E002DE50C54037013E50EC394015003750E67
:10027E001DE50ED3941D40168011E50EC39401505A
:10028E0003750E1CE50ED3941C4003750E01E50F8D
:10029E00C394005003750F17E510C39400500375F7
:1002AE00103BE511C39400500375113BAF5EEF3365
:1002BE0095E0FEC3E50C9FEE6480F87480985003C1
:1002CE00855E0CE50CB55E17AF5FEF3395E0FEC3B0
:1002DE00E50D9FEE6480F87480985003855F0DE500
:1002EE000CB55E1CE50DB55F17AF60EF3395E0FE04
:1002FE00C3E50E9FEE6480F8748098500385600EFF
:10030E00E50CB55E21E50DB55F1CE50EB56017AFCA
:10031E0061EF3395E0FEC3E50F9FEE6480F87480C5
:10032E0098500385610FE50CB55E26E50DB55F218E
:10033E00E50EB5601CE50FB56117AF62EF3395E0C2
:10034E00FEC3E5109FEE6480F874809850038562BA
:10035E0010E50C655E702BE50DB55F26E50EB560FC
:10036E0021E50FB5611CE510B56217AF63EF33954C
:10037E00E0FEC3E5119FEE6480F87480985003850B
:10038E006311E5547003020484E5127014E515B48C
:10039E00010F7BFF7A0E798C7D017F011211A180F6
:1003AE000FE50CFB7A007559027D017F0112107961
:1003BE00E512B40114E515B4010F7BFF7A0E798CAA
:1003CE007D047F011211A1800FE50DFB7A00755996
:1003DE00027D047F01121079E512B40214E515B402
:1003EE00010F7BFF7A0E798C7D077F011211A180A0
:1003FE000FE50EFB7A007559027D077F0112107909
:10040E00E512B40314E515B4010F7BFF7A0E798C57
:10041E007D017F021211A1800FE50FFB7A00755945
:10042E00027D017F02121079E512B40414E515B4B1
:10043E00010F7BFF7A0E798C7D047F021211A18051
:10044E000FE510FB7A007559027D047F02121079B8
:10045E00E512B40512E515B4010D7BFF7A0E798C09
:10046E007D077F020211A1E511FB7A007559027D0D
:07047E00077F021210792232
:10097500E552B40217E4F54AF54BF54CF54DF54E45
:100985001210B6751101E4F517751401E552B4039B
:100995000CE51470047F0180027F008F14E552641A
:1009A500047065E5146042E553C3940A505AE55353
:1009B50075F005A42418F8A64AE55375F005A42496
:1009C50019F8A64BE55375F005A4241AF8A64CE5CD
:1009D5005375F005A4241BF8A64DE55375F005A441
:1009E500241CF8A64E0553801FE553D394004018E8
:1009F500E5177005751701800FE55314B54F07E42A
:100A0500F54FF5178002054FE5147002F516E5144C
:100A15006036E516254EF54EE4F516E54ED39409F8
:100A2500402674F6254EF54E054DE54DB40A19E4FC
:100A3500F54D054CE54CB43C0FE4F54C054BE54B49
:100A4500B43C05E4F54B054AE5117003020B42E59C
:100A5500177003020AEAE54F75F005A42418F8E6B5
:100A6500FB7A007559027D017F01121079E54F75FA
:100A7500F005A42419F8E6FB7A007559027D047F78
:100A850001121079E54F75F005A4241AF8E6FB7AF2
:100A9500007559027D017F02121079E54F75F00549
:100AA500A4241BF8E6FB7A007559017D047F021228
:100AB5001079E54F75F005A4241CF8E6FB7A00755E
:100AC50059017D057F021210797BFF7A0E798F7DA2
:100AD500077F021211A1E54FFB7A007559017D08C8
:100AE5007F02021079E54AFB7A007559027D017F84
:100AF50001121079E54BFB7A007559027D047F01DF
:100B0500121079E54CFB7A007559027D017F0212BE
:100B15001079E54DFB7A007559017D047F021210AD
:100B250079E54EFB7A007559017D057F0212107932
:0E0B35007BFF7A0E798C7D077F021211A122C0
:1007540012122F1211F2120003120B431212087B11
:10076400FF7A0E79917D017F011211A17BFF7A0E30
:10077400799F7D017F021211A1120F6E8F52E552F3
:100784006401600302088CE51370207513017BFF7C
:100794007A0E79917D017F011211A17BFF7A0E7986
:1007A400AD7D017F021211A102083EE513640160D0
:1007B40003020843751302120B437BFF7A0E7991EF
:1007C4007D017F011211A17BFF7A0E79BB7D017F30
:1007D400021211A1E55EFB3395E0FA7559027D0121
:1007E4007F01121079E55FFB3395E0FA7559027DBC
:1007F400047F01121079E560FB3395E0FA75590224
:100804007D077F01121079E561FB3395E0FA755994
:10081400027D017F02121079E562FB3395E0FA75DF
:1008240059027D047F02121079E563FB3395E0FAE7
:100834007559027D077F02121079E4F5128049E5AB
:1008440013B4021F7513037BFF7A0E79CA7D017FEF
:10085400011211A17BFF7A0E79D87D017F0212115A
:10086400A18025E513B40320E4F5137BFF7A0E7908
:10087400917D017F011211A17BFF7A0E799F7D0189
:100884007F021211A1E4F51112112C8E508F51E543
:10089400514550700302094BE554700302094BE5BE
:1008A40013600302094BF550F551F5547BFF7A0EA2
:1008B40079917D017F011211A17BFF7A0E79E77D89
:1008C400017F021211A1E50CFB7A007559027D012A
:1008D4007F01121079E50DFB7A007559027D047FC2
:1008E40001121079E50EFB7A007559027D077F012C
:1008F400121079E50FFB7A007559027D017F02120F
:100904001079E510FB7A007559027D047F021210FC
:1009140079E511FB7A007559027D077F021210797F
:100924007FDC7E0512121CE4F5137BFF7A0E7991AD
:100934007D017F011211A17BFF7A0E79F67D017F83
:10094400021211A1E4F511E51314601314601614D6
:1009540060192403600302077D120F0502077D124C
:10096400048502077D12002E02077D120975020715
:010974007D05
:03000B000210F3ED
:0910F300C0E0C0D075D000C007B8
:1010FC00758CFC758A670509E50970020508C394AF
:10110C00F4E50894014012750800750900E51570A6
:09111C00047F0180027F008F15A1
:07112500D007D0D0D0E0326A
:03001B0002126E60
:09126E00758DFC758B67B2A53289
:03002B0002117D42
:04117D00C0E0C0D03E
:10118100C2CF050BE50B7002050AC3940AE50A9468
:0B119100004008750A00750B000516F1
:05119C00D0D0D0E032CC
:1010B600E4F553F54FFFEF75F005A42418F8E4F6B0
:1010C600EF75F005A42419F8E4F6EF75F005A424ED
:1010D6001AF8E4F6EF75F005A4241BF8E4F6EF75AC
:0C10E600F005A4241CF8E4F60FBF0ACAB1
:0110F20022DB
:10121C008E558F56121242AF56AE551211C4C28E55
:03122C00C2A52236
:10112C00120D73E50CB55E1EE50DB55F19E50EB538
:10113C006014E50FB5610FE510B5620AE511B563F2
:0A114C00057E007F0122E4FEFF2271
:10122F005389F0438901758CFC758A67D2A9D28CDA
:03123F00D2AF2209
:1012420053890F438910758DFC758B67D2ABD28E93
:03125200D2AF22F6
:1011F20075CBFC75CA6775CDFC75CC67E4F5C8D2B2
:06120200ADD2CAD2AF22FA
:03000000020E00ED
:0C0E0000787FE4F6D8FD758164020E478F
:100CBD00C2D530F707B2D563F0FF05F030E70CB2BF
:100CCD00D5F4048463F0FF05F080018430D502F47F
:020CDD000422EF
:100CDF00BB010CE58229F582E5833AF583E02250CA
:100CEF0006E92582F8E622BBFE06E92582F8E22214
:0D0CFF00E58229F582E5833AF583E493222E
:100D0C00EF8DF0A4A8F0CF8CF0A428CE8DF0A42EFB
:020D1C00FE22B5
:100D1E00BC000BBE0029EF8DF084FFADF022E4CCB9
:100D2E00F875F008EF2FFFEE33FEEC33FCEE9DEC82
:100D3E00984005FCEE9DFE0FD5F0E9E4CEFD22EDC8
:100D4E00F8F5F0EE8420D21CFEADF075F008EF2F12
:100D5E00FFED33FD4007985006D5F0F222C398FD03
:050D6E000FD5F0EA22A0
:100E0C00020754E493A3F8E493A34003F68001F2A1
:100E1C0008DFF48029E493A3F85407240CC8C333E7
:100E2C00C4540F4420C8834004F456800146F6DFB6
:100E3C00E4800B010204081020408090000EE47E38
:100E4C00019360BCA3FF543F30E509541FFEE493AB
:100E5C00A360010ECF54C025E060A840B8E493A372
:100E6C00FAE493A3F8E493A3C8C582C8CAC583CA9D
:100E7C00F0A3C8C582C8CAC583CADFE9DEE780BE55
:0100170000E8
:00000001FF
