:0410F000EF4E60134C
:1010F4007553027554C7D554FDD553FAEF1F70ECE0
:011104001ECC
:0311050080E9225C
:09000E00075B1901010000000369
:05000300C2B5C2B622E7
:050E11002DFDEE3CFC8C
:060E16008C528D53AB0766
:100E1C00D2B5E4FD74017E00A805088005C333CE6D
:100E2C0033CED8F9FFEBF582EF558224FF92B4D282
:100E3C00B6C2B60DBD08DDE4FD74017E00A8050840
:100E4C008005C333CE33CED8F9FFE5525EFEE553B1
:100E5C005F4E24FF92B4D2B6C2B60DBD08DBC2B54C
:010E6C002263
:020EC800AD0774
:100ECA00E4F9430501D2B5FB74017E00A80308804A
:100EDA0005C333CE33CED8F9FFEDF582EF55822420
:100EEA00FF92B4C2B6D2B60BBB08DDE4FBD2B6C2DF
:100EFA00B630B40D7401A803088002C333D8FC428B
:0B0F0A00010BBB08E8C2B5C2B4AF0188
:010F150022B9
:1008F000E4FDFC7F8E120E16E55B75F00A120B7894
:10090000FF3395E0FEEFC4F8540FC868FFEEC454FF
:10091000F048FEE55B75F00A120B78ADF0ED33950B
:10092000E0FCEF7F8C120E11E55C75F00A120B787B
:10093000FF3395E0FEEFC4F8540FC868FFEEC454CF
:10094000F048FEE55C75F00A120B78ADF0ED3395DA
:10095000E0FCEF7F88120E11E55D75F00A120B784E
:10096000FF3395E0FEEFC4F8540FC868FFEEC4549F
:10097000F048FEE55D75F00A120B78ADF0ED3395A9
:10098000E0FCEF2DFDEE3CFC7F86120E16E55E7559
:10099000F00A120B78FF3395E0FEEFC4F8540FC84D
:1009A00068FFEEC454F048FEE55E75F00A120B785D
:1009B000ADF0ED3395E0FCEF2DFDEE3CFC7F8412B5
:1009C0000E16E55F75F00A120B78FF3395E0FEEF27
:1009D000C4F8540FC868FFEEC454F048FEE55F75D4
:1009E000F00A120B78ADF0ED3395E0FCEF2DFDEE43
:1009F0003CFC7F82120E16E56075F00A120B78FF40
:100A00003395E0FEEFC4F8540FC868FFEEC454F00D
:100A100048FEE56075F00A120B78ADF0ED3395E015
:100A2000FCEF2DFDEE3CFC7F80120E16E56175F0AB
:100A30000A120B78FF3395E0FEEFC4F8540FC86834
:100A4000FFEEC454F048FEE56175F00A120B78AD74
:100A5000F0ED3395E0FCEF2DFDEE3CFC7F8A120EAD
:0A0A6000167D807C007F8E020E16CA
:100C2E007F8C120EC8EFC4540F75F00AA4FEEF5459
:100C3E000F2EF55B7F88120EC8EFC4540F75F00AA5
:100C4E00A4FEEF540F2EF55C7F86120EC8EFC4542F
:100C5E000F75F00AA4FEEF540F2EF55D7F84120E71
:100C6E00C8EFC4540F75F00AA4FEEF540F2EF55EB4
:100C7E007F82120EC8EFC4540F75F00AA4FEEF5413
:100C8E000F2EF55F7F80120EC8EFC4540F75F00A59
:100C9E00A4FEEF540F2EF5607F8A120EC8EFC454D7
:0C0CAE000F75F00AA4FEEF540F2EF56144
:010CBA002217
:100DB000E4F55220B1137F14FE1210F030B1FD7F24
:100DC000147E001210F075520120B0147F147E00C2
:100DD0001210F030B0FD7F147E001210F075520238
:100DE00020B2147F147E001210F030B2FD7F147E0A
:100DF000001210F075520320B3147F147E001210FD
:100E0000F030B3FD7F147E001210F0755204AF5223
:010E100022BF
:06116E00C2A58F80D2A78C
:081174007F027EEFDEFEDFFCCE
:01117C002250
:0A117D00C2A612116EC2A70211747F
:1010B500CFCDCFCECCCE120BD97C007D0A120BD969
:0410C500ED2430FFE7
:0A10C900D2A612116EC2A702117424
:10110800AE07BE0104ED148006BE0209ED243F447B
:0611180080FF12117D2290
:101134007F3812117D7F0C12117D7F0612117D7F85
:041144000102117D16
:0A118700AC03121108AF040210C9F6
:061092008B528A538954C1
:10109800121108E4FDAB52AA53A9548D827583003E
:0C10A800120B9AFF60061210C90D80E9BF
:0110B4002219
:0C1037007F0AEA24FFFDE434FFFC7E0089
:081043008E578F588C598D5A0D
:10104B007F017E00E4FBEBC3955AE5596480F8748D
:0E105B008098500AAC57AD58120BC70B80E8B6
:011069002264
:0410D3008A548B555B
:1010D700121108AA56EAD39400400D121037AC54E7
:0810E700AD551210B51A80EDA1
:0110EF0022DE
:100F5300121108C3EA64809480400B7F2B1210C9DE
:100F63008A678B68800E7F2D1210C9C3E49BF568D6
:100F7300E49AF567AA66EAD39400400D121037ACE1
:090F830067AD681210B51A80ED8B
:010F8C002242
:040F8D008A6B8B6C74
:100F9100121108AA6DEAD3940040297F101210396A
:100FA100AC6BAD6CCFCDCFCECCCE120BD9EF540FF5
:100FB100FEC3940AEE5004243080022437FF12103D
:040FC100C91A80D1F8
:010FC5002209
:040FFF008A708B71F8
:10100300121108AA72EAD394004028EA24FFFDE4EF
:1010130034FFFC7F027E00121043AC70AD71CFCD64
:10102300CFCECCCE120BD9EF54012430FF1210C90E
:031033001A80D24E
:011036002297
:100E6D00202000540020202D20202D2020204D4F0B
:100E7D0044450020203A20203A20202053484F5747
:100E8D000020203A20203A202020534554200020D5
:100E9D00203A20203A202020414C41524D00202064
:100EAD003A2020202020204D4F44450020202E2088
:0B0EBD002020202020532D5720200073
:100D4700120C2EE55BFB3395E0FA7556027D017FA9
:100D5700011210D3E55CFB3395E0FA7556027D046A
:100D67007F011210D3E55DFB3395E0FA7556027DDE
:100D7700077F011210D3E55EFB3395E0FA75560243
:100D87007D017F021210D3E55FFB3395E0FA7556BC
:100D9700027D047F021210D3E560FB3395E0FA75FC
:090DA70056027D077F020210D301
:10045300E550B4020B0512E51275F0068485F0121F
:10046300E5506403600302052D745B2512F806D37F
:10047300E55B648094E34003E4F55BD3E55C64806F
:10048300948C4003755C01E55C64016023E55C6466
:1004930003601DE55C64056017E55C64076011E5B6
:1004A3005C6408600BE55C640A6005E55CB40C0BF6
:1004B300D3E55D6480949F404D8048E55C640460AF
:1004C30011E55C6406600BE55C64096005E55CB4FA
:1004D3000B0BD3E55D6480949E402B8026E55CB4D2
:1004E3000224E55B75F004120B78AFF0EF700BD3C9
:1004F300E55D6480949D400E8009D3E55D6480943E
:100503009C4003755D01D3E55E648094974003E4EA
:10051300F55ED3E55F648094BB4003E4F55FD3E508
:1005230060648094BB4003E4F560E55064046003B9
:10053300020628745B2512F816C3E55B6480948079
:100543005003755B63C3E55C648094815003755C01
:100553000CE55C64016023E55C6403601DE55C6499
:10056300056017E55C64076011E55C6408600BE5F2
:100573005C640A6005E55CB40C17C3E55D648094B4
:10058300815003755D1FD3E55D6480949F40728045
:100593006DE55C64046011E55C6406600BE55C6416
:1005A300096005E55CB40B17C3E55D648094815075
:1005B30003755D1ED3E55D6480949E4044803FE5F2
:1005C3005C6402703CE55B75F004120B78AFF0EFEE
:1005D3007017C3E55D648094815003755D1DD3E599
:1005E3005D6480949D401A8015C3E55D64809481A9
:1005F3005003755D1CD3E55D6480949C4003755D79
:1006030001C3E55E648094805003755E17C3E55FA4
:10061300648094805003755F3BC3E560648094807D
:10062300500375603BE5127014E515B4010F7BFFB1
:100633007A0E796D7D017F011210928011E55BFBCB
:100643003395E0FA7556027D017F011210D3E5124E
:10065300B40114E515B4010F7BFF7A0E796D7D04A7
:100663007F011210928011E55CFB3395E0FA755619
:10067300027D047F011210D3E512B40214E515B410
:10068300010F7BFF7A0E796D7D077F011210928037
:1006930011E55DFB3395E0FA7556027D077F011284
:1006A30010D3E512B40314E515B4010F7BFF7A0EE2
:1006B300796D7D017F021210928011E55EFB339507
:1006C300E0FA7556027D017F021210D3E512B404DD
:1006D30014E515B4010F7BFF7A0E796D7D047F025B
:1006E3001210928011E55FFB3395E0FA7556027D97
:1006F300047F021210D3E512B40512E515B4010DFF
:100703007BFF7A0E796D7D077F02021092E560FB15
:0F0713003395E0FA7556027D077F021210D3224C
:10001E00E550B4020B0512E51275F0068485F01258
:10002E00E550640360030201B5740C2512F806E571
:10003E000CD394634003E4F50CE50DD3940C40030C
:10004E00750D01E50D64016023E50D6403601DE58A
:10005E000D64056017E50D64076011E50D64086019
:10006E000BE50D640A6005E50DB40C09E50ED3949D
:10007E001F4040803BE50D64046011E50D64066091
:10008E000BE50D64096005E50DB40B09E50ED3947F
:10009E001E4020801BE50DB40219E50C54037009B7
:1000AE00E50ED3941D400C8007E50ED3941C40033F
:1000BE00750E01E50FD394174003E4F50FE510D349
:1000CE00943B4003E4F510E511D3943B4003E4F573
:1000DE0011AF5BEF3395E0FEC3E50C9FEE6480F845
:1000EE007480985003855B0CE50CB55B17AF5CEF25
:1000FE003395E0FEC3E50D9FEE6480F87480985052
:10010E0003855C0DE50CB55B1CE50DB55C17AF5DAD
:10011E00EF3395E0FEC3E50E9FEE6480F874809891
:10012E005003855D0EE50CB55B21E50DB55C1CE558
:10013E000EB55D17AF5EEF3395E0FEC3E50F9FEE94
:10014E006480F87480985003855E0FE50CB55B26CD
:10015E00E50DB55C21E50EB55D1CE50FB55E17AF7F
:10016E005FEF3395E0FEC3E5109FEE6480F8748078
:10017E00985003855F10E50C655B702BE50DB55C43
:10018E0026E50EB55D21E50FB55E1CE510B55F17D2
:10019E00AF60EF3395E0FEC3E5119FEE6480F87417
:1001AE0080985003856011E5506404600302036576
:1001BE00740C2512F816E50CC394005003750C63ED
:1001CE00E50DC394015003750D0CE50D640160231C
:1001DE00E50D6403601DE50D64056017E50D64070C
:1001EE006011E50D6408600BE50D640A6005E50D10
:1001FE00B40C13E50EC394015003750E1FE50ED318
:10020E00941F405F805AE50D64046011E50D64068D
:10021E00600BE50D64096005E50DB40B13E50EC327
:10022E0094015003750E1EE50ED3941E403580309A
:10023E00E50D6402702DE50C54037013E50EC394A6
:10024E00015003750E1DE50ED3941D40168011E569
:10025E000EC394015003750E1CE50ED3941C40037F
:10026E00750E01E50FC394005003750F17E510C30B
:10027E009400500375103BE511C3940050037511A3
:10028E003BAF5BEF3395E0FEC3E50C9FEE6480F869
:10029E007480985003855B0CE50CB55B17AF5CEF73
:1002AE003395E0FEC3E50D9FEE6480F874809850A0
:1002BE0003855C0DE50CB55B1CE50DB55C17AF5DFC
:1002CE00EF3395E0FEC3E50E9FEE6480F8748098E0
:1002DE005003855D0EE50CB55B21E50DB55C1CE5A7
:1002EE000EB55D17AF5EEF3395E0FEC3E50F9FEEE3
:1002FE006480F87480985003855E0FE50CB55B261C
:10030E00E50DB55C21E50EB55D1CE50FB55E17AFCD
:10031E005FEF3395E0FEC3E5109FEE6480F87480C6
:10032E00985003855F10E50C655B702BE50DB55C91
:10033E0026E50EB55D21E50FB55E1CE510B55F1720
:10034E00AF60EF3395E0FEC3E5119FEE6480F87465
:10035E0080985003856011E5127014E515B4010FF5
:10036E007BFF7A0E796D7D017F01121092800FE571
:10037E000CFB7A007556027D017F011210D3E51237
:10038E00B40114E515B4010F7BFF7A0E796D7D046F
:10039E007F01121092800FE50DFB7A007556027DDB
:1003AE00047F011210D3E512B40214E515B4010F47
:1003BE007BFF7A0E796D7D077F01121092800FE51B
:1003CE000EFB7A007556027D077F011210D3E512DF
:1003DE00B40314E515B4010F7BFF7A0E796D7D0120
:1003EE007F02121092800FE50FFB7A007556027D88
:1003FE00017F021210D3E512B40414E515B4010FF7
:10040E007BFF7A0E796D7D047F02121092800FE5CC
:10041E0010FB7A007556027D047F021210D3E5128E
:10042E00B40512E515B4010D7BFF7A0E796D7D07CB
:10043E007F02021092E511FB7A007556027D077F4E
:05044E00021210D32290
:10072200E550B40217E4F54AF54BF54CF54DF54E9C
:10073200120F16751101E4F517751401E550B40393
:100742000CE51470047F0180027F008F14E5506471
:10075200047065E5146042E551C3940A505AE551AC
:1007620075F005A42418F8A64AE55175F005A424ED
:1007720019F8A64BE55175F005A4241AF8A64CE524
:100782005175F005A4241BF8A64DE55175F005A49A
:10079200241CF8A64E0551801FE551D39400401841
:1007A200E5177005751701800FE55114B54F07E481
:1007B200F54FF5178002054FE5147002F516E514A2
:1007C2006036E516254EF54EE4F516E54ED394094E
:1007D200402674F6254EF54E054DE54DB40A19E452
:1007E200F54D054CE54CB43C0FE4F54C054BE54B9F
:1007F200B43C05E4F54B054AE51170030208EFE548
:10080200177003020897E54F75F005A42418F8E65F
:10081200FB7A007556027D017F011210D3E54F75F8
:10082200F005A42419F8E6FB7A007556027D047FD0
:10083200011210D3E54F75F005A4241AF8E6FB7AED
:10084200007556027D017F021210D3E54F75F00547
:10085200A4241BF8E6FB7A007556017D047F021280
:1008620010D3E54F75F005A4241CF8E6FB7A007559
:1008720056017D057F021210D37BFF7A0E79707DBF
:10088200077F02121092E54FFB7A007556017D0830
:100892007F020210D3E54AFB7A007556027D017F82
:1008A200011210D3E54BFB7A007556027D047F01DD
:1008B2001210D3E54CFB7A007556027D017F0212BD
:1008C20010D3E54DFB7A007556017D047F021210AC
:1008D200D3E54EFB7A007556017D057F021210D3D7
:0E08E2007BFF7A0E796D7D077F021210922245
:100A6A0012114812115B1200031208F01211347BA2
:100A7A00FF7A0E79727D017F011210927BFF7A0E46
:100A8A0079807D017F02121092120DB08F50E550CD
:100A9A0064016003020B4EE51370237513017BFF9B
:100AAA007A0E79727D017F011210927BFF7A0E799C
:100ABA008E7D017F02121092E4F512020B4EE513AD
:100ACA00640170377513021208F07BFF7A0E79728F
:100ADA007D017F011210927BFF7A0E799C7D017F46
:100AEA0002121092E4F512855B0C855C0D855D0E91
:100AFA00855E0F855F108560118049E513B4021F7A
:100B0A007513037BFF7A0E79AB7D017F0112109278
:100B1A007BFF7A0E79B97D017F021210928025E55A
:100B2A0013B40320E4F5137BFF7A0E79727D017FFB
:100B3A00011210927BFF7A0E79807D017F021210DA
:100B4A0092E4F511E5131460131460161460192465
:100B5A00036003020A93120D47020A931204530216
:0E0B6A000A9312001E020A93120722020A9337
:03000B00020FC61B
:090FC600C0E0C0D075D000C007E6
:100FCF00758CFC758A670509E50970020508C394DD
:100FDF00F4E50894014012750800750900E51570D5
:090FEF00047F0180027F008F15D0
:070FF800D007D0D0D0E03299
:03001B0002106A66
:04106A00C0E0C0D052
:10106E00758DFC758B67050BE50B7002050AC39435
:0F107E000AE50A94004008750A00750B00051674
:05108D00D0D0D0E032DC
:100F1600E4F551F54FFFEF75F005A42418F8E4F653
:100F2600EF75F005A42419F8E4F6EF75F005A4248E
:100F36001AF8E4F6EF75F005A4241BF8E4F6EF754D
:0C0F4600F005A4241CF8E4F60FBF0ACA52
:010F5200227C
:101148005389F0438901758CFC758A67D2A9D28CC2
:03115800D2AF22F1
:10115B0053890F438910758DFC758B67D2ABD28E7B
:03116B00D2AF22DE
:10111E0075CBFC75CA6775CDFC75CC67E4F5C8D286
:06112E00ADD2CAD2AF22CF
:03000000020CBB34
:0C0CBB00787FE4F6D8FD758172020D020E
:100B7800C2D530F707B2D563F0FF05F030E70CB205
:100B8800D5F4048463F0FF05F080018430D502F4C5
:020B9800042235
:100B9A00BB010CE58229F582E5833AF583E0225010
:100BAA0006E92582F8E622BBFE06E92582F8E2225A
:0D0BBA00E58229F582E5833AF583E4932274
:100BC700EF8DF0A4A8F0CF8CF0A428CE8DF0A42E42
:020BD700FE22FC
:100BD900BC000BBE0029EF8DF084FFADF022E4CC00
:100BE900F875F008EF2FFFEE33FEEC33FCEE9DECC9
:100BF900984005FCEE9DFE0FD5F0E9E4CEFD22ED0F
:100C0900F8F5F0EE8420D21CFEADF075F008EF2F58
:100C1900FFED33FD4007985006D5F0F222C398FD49
:050C29000FD5F0EA22E6
:100CC700020A6AE493A3F8E493A34003F68001F2CF
:100CD70008DFF48029E493A3F85407240CC8C3332E
:100CE700C4540F4420C8834004F456800146F6DFFD
:100CF700E4800B010204081020408090000EE47E7F
:100D0700019360BCA3FF543F30E509541FFEE493F1
:100D1700A360010ECF54C025E060A840B8E493A3B8
:100D2700FAE493A3F8E493A3C8C582C8CAC583CAE3
:100D3700F0A3C8C582C8CAC583CADFE9DEE780BE9B
:0100170000E8
:00000001FF
